:10000000C0CC00207D720000A31F030069720000B5
:10001000697200006972000069720000000000004F
:1000200000000000000000000000000085730000D8
:1000300069720000000000001D730000697200007A
:10004000F175000061D80100F1750000F175000044
:10005000F1750000F1750000F1750000F175000008
:10006000F1750000F1750000F1750000F1750000F8
:10007000F1750000F1750000F1750000F1750000E8
:10008000F1750000F1750000F1750000F1750000D8
:10009000F1750000F1750000F1750000F1750000C8
:1000A000F1750000F1750000F1750000F1750000B8
:1000B000F1750000F1750000F1750000F1750000A8
:1000C000F1750000F1750000F1750000F175000098
:0C00D000F1750000F1750000F1750000F2
:0400DC00FFFFFFFF24
:1000E00081F0004102E000BF83F0004330B54FEAE9
:1000F00041044FEA430594EA050F08BF90EA020F56
:100100001FBF54EA000C55EA020C7FEA645C7FEAE8
:10011000655C00F0E2804FEA5454D4EB5555B8BF0B
:100120006D420CDD2C4480EA020281EA030382EA7C
:10013000000083EA010180EA020281EA0303362D0E
:1001400088BF30BD11F0004F4FEA01314FF4801CE1
:100150004CEA113102D0404261EB410113F0004FF3
:100160004FEA03334CEA133302D0524263EB4303AA
:1001700094EA050F00F0A780A4F10104D5F1200E48
:100180000DDB02FA0EFC22FA05F2801841F10001A3
:1001900003FA0EF2801843FA05F359410EE0A5F177
:1001A00020050EF1200E012A03FA0EFC28BF4CF0A8
:1001B000020C43FA05F3C01851EBE37101F000455E
:1001C00007D54FF0000EDCF1000C7EEB00006EEB6B
:1001D0000101B1F5801F1BD3B1F5001F0CD34908F5
:1001E0005FEA30004FEA3C0C04F101044FEA44524C
:1001F00012F5800F80F09A80BCF1004F08BF5FEAD3
:10020000500C50F1000041EB045141EA050130BDB2
:100210005FEA4C0C404141EB0101013C28BFB1F5C4
:10022000801FE9D291F0000F04BF01460020B1FA0F
:1002300081F308BF2033A3F10B03B3F120020CDAE2
:100240000C3208DD02F1140CC2F10C0201FA0CF0C0
:1002500021FA02F10CE002F11402D8BFC2F1200C25
:1002600001FA02F120FA0CFCDCBF41EA0C019040DB
:10027000E41AA2BF01EB0451294330BD6FEA040424
:100280001F3C1CDA0C340EDC04F11404C4F120020F
:1002900020FA04F001FA02F340EA030021FA04F321
:1002A00045EA030130BDC4F10C04C4F1200220FA78
:1002B00002F001FA04F340EA0300294630BD21FAB6
:1002C00004F0294630BD94F0000F83F4801306BF7C
:1002D00081F480110134013D4EE77FEA645C18BF70
:1002E0007FEA655C29D094EA050F08BF90EA020F07
:1002F00005D054EA000C04BF1946104630BD91EAFF
:10030000030F1EBF0021002030BD5FEA545C05D101
:100310004000494128BF41F0004130BD14F5800440
:100320003CBF01F5801130BD01F0004545F0FE41B4
:1003300041F470014FF0000030BD7FEA645C1ABFE9
:10034000194610467FEA655C1CBF0B46024650EA20
:10035000013406BF52EA033591EA030F41F400214C
:1003600030BD00BF90F0000F04BF0021704730B5D2
:100370004FF4806404F132044FF000054FF00001A7
:1003800050E700BF90F0000F04BF0021704730B568
:100390004FF4806404F1320410F0004548BF40423D
:1003A0004FF000013EE700BF42004FEAE2014FEA92
:1003B00031014FEA02701FBF12F07F4393F07F4F6D
:1003C00081F06051704732F07F4208BF704793F070
:1003D0007F4F04BF41F40021704730B54FF4607483
:1003E00001F0004521F000411CE700BF50EA010286
:1003F00008BF704730B54FF000050AE050EA01022F
:1004000008BF704730B511F0004502D5404261EB9E
:1004100041014FF4806404F132045FEA915C3FF4DF
:10042000D8AE4FF003025FEADC0C18BF03325FEA7C
:10043000DC0C18BF033202EBDC02C2F1200300FA2D
:1004400003FC20FA02F001FA03FE40EA0E0021FA52
:1004500002F11444BDE600BF70B54FF0FF0C4CF440
:10046000E06C1CEA11541DBF1CEA135594EA0C0FF2
:1004700095EA0C0F00F0DEF82C4481EA030621EA2D
:100480004C5123EA4C5350EA013518BF52EA033568
:1004900041F4801143F4801338D0A0FB02CE4FF01A
:1004A0000005E1FB02E506F00042E0FB03E54FF04A
:1004B0000006E1FB03569CF0000F18BF4EF0010E42
:1004C000A4F1FF04B6F5007F64F5407404D25FEA3E
:1004D0004E0E6D4146EB060642EAC62141EA5551F1
:1004E0004FEAC52040EA5E504FEACE2EB4F1FD0C33
:1004F00088BFBCF5E06F1ED8BEF1004F08BF5FEAB1
:10050000500E50F1000041EB045170BD06F0004662
:1005100046EA010140EA020081EA0301B4EB5C040F
:10052000C2BFD4EB0C0541EA045170BD41F4801107
:100530004FF0000E013C00F3AB8014F1360FDEBF2C
:10054000002001F0004170BDC4F10004203C35DA08
:100550000C341BDC04F11404C4F1200500FA05F38B
:1005600020FA04F001FA05F240EA020001F000422C
:1005700021F0004110EBD37021FA04F642EB0601A2
:100580005EEA430E08BF20EAD37070BDC4F10C04CC
:10059000C4F1200500FA04F320FA05F001FA04F290
:1005A00040EA020001F0004110EBD37041F100017C
:1005B0005EEA430E08BF20EAD37070BDC4F1200587
:1005C00000FA05F24EEA020E20FA04F301FA05F2EF
:1005D00043EA020321FA04F001F0004121FA04F297
:1005E00020EA020000EBD3705EEA430E08BF20EA67
:1005F000D37070BD94F0000F0FD101F000464000A1
:1006000041EB010111F4801F08BF013CF7D041EA22
:10061000060195F0000F18BF704703F00046520026
:1006200043EB030313F4801F08BF013DF7D043EAF7
:100630000603704794EA0C0F0CEA135518BF95EAAD
:100640000C0F0CD050EA410618BF52EA4306D1D134
:1006500081EA030101F000414FF0000070BD50EA53
:10066000410606BF1046194652EA430619D094EADD
:100670000C0F02D150EA013613D195EA0C0F05D1C7
:1006800052EA03361CBF104619460AD181EA03011B
:1006900001F0004141F0FE4141F470014FF00000D3
:1006A00070BD41F0FE4141F4780170BD70B54FF06E
:1006B000FF0C4CF4E06C1CEA11541DBF1CEA1355EE
:1006C00094EA0C0F95EA0C0F00F0A7F8A4EB0504D0
:1006D00081EA030E52EA03354FEA013100F08880C7
:1006E0004FEA03334FF0805545EA131343EA126390
:1006F0004FEA022245EA111545EA10654FEA002645
:100700000EF000419D4208BF964244F1FD0404F5FD
:10071000407402D25B084FEA3202B61A65EB030559
:100720005B084FEA32024FF480104FF4002CB6EB16
:10073000020E75EB030E22BFB61A754640EA0C0096
:100740005B084FEA3202B6EB020E75EB030E22BFD6
:10075000B61A754640EA5C005B084FEA3202B6EB17
:10076000020E75EB030E22BFB61A754640EA9C00D6
:100770005B084FEA3202B6EB020E75EB030E22BFA6
:10078000B61A754640EADC0055EA060E18D04FEA64
:10079000051545EA16754FEA06164FEAC30343EA04
:1007A00052734FEAC2025FEA1C1CC0D111F4801FD1
:1007B0000BD141EA00014FF000004FF0004CB6E7CA
:1007C00011F4801F04BF01430020B4F1FD0C88BF69
:1007D000BCF5E06F3FF6AFAEB5EB030C04BFB6EB74
:1007E000020C5FEA500C50F1000041EB045170BD67
:1007F0000EF0004E4EEA113114EB5C04C2BFD4EB94
:100800000C0541EA045170BD41F480114FF0000E17
:10081000013C90E645EA060E8DE60CEA135594EA93
:100820000C0F08BF95EA0C0F3FF43BAF94EA0C0F96
:100830000AD150EA01347FF434AF95EA0C0F7FF40B
:1008400025AF104619462CE795EA0C0F06D152EA5F
:1008500003353FF4FDAE1046194622E750EA410643
:1008600018BF52EA43067FF4C5AE50EA41047FF454
:100870000DAF52EA43057FF4EBAE12E74FF0FF3CB9
:1008800006E000BF4FF0010C02E000BF4FF0010C8A
:100890004DF804CD4FEA410C7FEA6C5C4FEA430C03
:1008A00018BF7FEA6C5C1BD001B050EA410C0CBF52
:1008B00052EA430C91EA030F02BF90EA020F0020B4
:1008C000704710F1000F91EA030F58BF994208BF1B
:1008D00090422CBFD8176FEAE37040F001007047D8
:1008E0004FEA410C7FEA6C5C02D150EA013C07D12F
:1008F0004FEA430C7FEA6C5CD6D152EA033CD3D07A
:100900005DF8040B704700BF8446104662468C4673
:100910001946634600E000BF01B5FFF7B7FF0028A6
:1009200048BF10F1000F01BD4DF808EDFFF7F4FFCF
:100930000CBF012000205DF808FB00BF4DF808ED5A
:10094000FFF7EAFF34BF012000205DF808FB00BF7D
:100950004DF808EDFFF7E0FF94BF012000205DF89F
:1009600008FB00BF4DF808EDFFF7CEFF94BF012054
:1009700000205DF808FB00BF4DF808EDFFF7C4FF4D
:1009800034BF012000205DF808FB00BF4FEA4102A0
:1009900012F5001215D211D56FF47873B3EB6252D1
:1009A00012D94FEAC12343F0004343EA505311F0F8
:1009B000004F23FA02F018BF404270474FF000008A
:1009C000704750EA013005D111F0004008BF6FF0C8
:1009D000004070474FF00000704700BF4FEA4102EF
:1009E000B2F1E04324BFB3F5001CDCF1FE5C0DD98D
:1009F00001F0004C4FEAC0024CEA5070B2F1004FD7
:100A000040EB830008BF20F00100704711F0804FD9
:100A100021D113F13872BCBF01F00040704741F49E
:100A200080114FEA5252C2F11802C2F1200C10FAA2
:100A30000CF320FA02F018BF40F001004FEAC12386
:100A40004FEAD32303FA0CFC40EA0C0023FA02F32A
:100A50004FEA4303CCE77FEA625307D150EA013300
:100A60001EBF4FF0FE4040F44000704701F00040D0
:100A700040F0FE4040F40000704700BF80F00040AE
:100A800002E000BF81F0004142001FBF5FEA410366
:100A900092EA030F7FEA226C7FEA236C6AD04FEA66
:100AA0001262D2EB1363C1BFD218414048404140AB
:100AB000B8BF5B42192B88BF704710F0004F40F45D
:100AC000000020F07F4018BF404211F0004F41F479
:100AD000000121F07F4118BF494292EA030F3FD045
:100AE000A2F1010241FA03FC10EB0C00C3F1200358
:100AF00001FA03F100F0004302D5494260EB4000E7
:100B0000B0F5000F13D3B0F1807F06D340084FEA51
:100B1000310102F10102FE2A51D2B1F1004F40EB46
:100B2000C25008BF20F0010040EA030070474900AE
:100B300040EB0000013A28BFB0F5000FEDD2B0FA4B
:100B400080FCACF1080CB2EB0C0200FA0CF0AABF6E
:100B500000EBC25052421843BCBFD040184370470C
:100B600092F0000F81F4000106BF80F40000013212
:100B7000013BB5E74FEA41037FEA226C18BF7FEAE9
:100B8000236C21D092EA030F04D092F0000F08BF2B
:100B90000846704790EA010F1CBF0020704712F012
:100BA0007F4F04D1400028BF40F00040704712F151
:100BB00000723CBF00F50000704700F0004343F0B6
:100BC000FE4040F4000070477FEA226216BF0846EC
:100BD0007FEA23630146420206BF5FEA412390EAAF
:100BE000010F40F4800070474FF0000304E000BFA5
:100BF00010F0004348BF40425FEA000C08BF704756
:100C000043F0964301464FF000001CE050EA010219
:100C100008BF70474FF000030AE000BF50EA01022E
:100C200008BF704711F0004302D5404261EB41011B
:100C30005FEA010C02BF84460146002043F0B64340
:100C400008BFA3F18053A3F50003BCFA8CF2083A65
:100C5000A3EBC25310DB01FA02FC634400FA02FC6E
:100C6000C2F12002BCF1004F20FA02F243EB020075
:100C700008BF20F00100704702F1200201FA02FCD7
:100C8000C2F1200250EA4C0021FA02F243EB0200CA
:100C900008BF20EADC7070474FF0FF0C1CEAD0520E
:100CA0001EBF1CEAD15392EA0C0F93EA0C0F6FD0CF
:100CB0001A4480EA010C400218BF5FEA41211ED0AD
:100CC0004FF0006343EA501043EA5111A0FB013199
:100CD0000CF00040B1F5000F3EBF490041EAD3716E
:100CE0005B0040EA010062F17F02FD2A1DD8B3F1EA
:100CF000004F40EBC25008BF20F00100704790F059
:100D0000000F0CF0004C08BF49024CEA502040EAAA
:100D100051207F3AC2BFD2F1FF0340EAC250704770
:100D200040F400004FF00003013A5DDC12F1190FAE
:100D3000DCBF00F000407047C2F10002410021FA20
:100D400002F1C2F1200200FA02FC5FEA310040F138
:100D5000000053EA4C0308BF20EADC70704792F0B1
:100D6000000F00F0004C02BF400010F4000F013AE9
:100D7000F9D040EA0C0093F0000F01F0004C02BFE4
:100D8000490011F4000F013BF9D041EA0C018FE753
:100D90000CEAD15392EA0C0F18BF93EA0C0F0AD059
:100DA00030F0004C18BF31F0004CD8D180EA01007F
:100DB00000F00040704790F0000F17BF90F0004F18
:100DC000084691F0000F91F0004F14D092EA0C0FFA
:100DD00001D142020FD193EA0C0F03D14B0218BF8D
:100DE000084608D180EA010000F0004040F0FE40D3
:100DF00040F40000704740F0FE4040F4400070476F
:100E00004FF0FF0C1CEAD0521EBF1CEAD15392EAED
:100E10000C0F93EA0C0F69D0A2EB030280EA010CDD
:100E200049024FEA402037D04FF0805343EA111176
:100E300043EA10130CF000408B4238BF5B0042F1D4
:100E40007D024FF4000C8B4224BF5B1A40EA0C0079
:100E5000B3EB510F24BFA3EB510340EA5C00B3EBAB
:100E6000910F24BFA3EB910340EA9C00B3EBD10F99
:100E700024BFA3EBD10340EADC001B0118BF5FEAEB
:100E80001C1CE0D1FD2A3FF650AF8B4240EBC25014
:100E900008BF20F0010070470CF0004C4CEA5020D5
:100EA0007F32C2BFD2F1FF0340EAC250704740F424
:100EB00000004FF00003013A37E792F0000F00F016
:100EC000004C02BF400010F4000F013AF9D040EA94
:100ED0000C0093F0000F01F0004C02BF490011F428
:100EE000000F013BF9D041EA0C0195E70CEAD15320
:100EF00092EA0C0F08D142027FF47DAF93EA0C0F07
:100F00007FF470AF084676E793EA0C0F04D14B02EA
:100F10003FF44CAF08466EE730F0004C18BF31F09C
:100F2000004CCAD130F000427FF45CAF31F0004396
:100F30007FF43CAF5FE700BF4FF0FF3C06E000BF2F
:100F40004FF0010C02E000BF4FF0010C4DF804CD52
:100F50004FEA40024FEA41037FEA226C18BF7FEA62
:100F6000236C11D001B052EA530C18BF90EA010F64
:100F700058BFB2EB030088BFC81738BF6FEAE170F3
:100F800018BF40F0010070477FEA226C02D15FEA8F
:100F9000402C05D17FEA236CE4D15FEA412CE1D0FB
:100FA0005DF8040B704700BF844608466146FFE7C2
:100FB0000FB5FFF7C9FF002848BF10F1000F0FBDA4
:100FC0004DF808EDFFF7F4FF0CBF012000205DF89D
:100FD00008FB00BF4DF808EDFFF7EAFF34BF012022
:100FE00000205DF808FB00BF4DF808EDFFF7E0FFBB
:100FF00094BF012000205DF808FB00BF4DF808ED0C
:10100000FFF7D2FF94BF012000205DF808FB00BF6E
:101010004DF808EDFFF7C8FF34BF012000205DF850
:1010200008FB00BF4FEA4002B2F1FE4F0FD34FF072
:101030009E03B3EB12620DD94FEA002343F0004345
:1010400010F0004F23FA02F018BF404270474FF0F3
:101050000000704712F1610F01D1420205D110F07A
:10106000004008BF6FF0004070474FF0000070472D
:101070007BB972B90029BEBF00204FF0004106E0E5
:1010800008BF00281CBF6FF000414FF0FF3000F098
:1010900075B8ADF1080C6DE904CE002909DB002B11
:1010A0001ADB00F0A4F8DDF804E0DDE9022304B067
:1010B0007047404261EB4101002B1BDB00F097F8C9
:1010C000DDF804E0DDE9022304B0404261EB4101B8
:1010D000524263EB43037047524263EB430300F019
:1010E00086F8DDF804E0DDE9022304B0404261EB5C
:1010F00041017047524263EB430300F078F8DDF89A
:1011000004E0DDE9022304B0524263EB430370477D
:1011100053B94AB9002908BF00281CBF4FF0FF315E
:101120004FF0FF3000F02AB8ADF1080C6DE904CEA5
:1011300000F05DF8DDF804E0DDE9022304B070475B
:10114000D0B50C4B002206460F46FFF785F900F09C
:1011500017F80446FFF706F9074B0022FFF77CF962
:1011600002460B4630463946FEF7BEFF00F008F84F
:101170002146D0BD0000F03D0000F041704700BFA7
:101180004A0011D212F5001211D20DD56FF4787306
:10119000B3EB62520ED44FEAC12343F0004343EA5B
:1011A000505323FA02F070474FF00000704750EAA6
:1011B000013002D14FF0FF3070474FF00000704710
:1011C00038B50022002304460D46FFF7B7FB28B9C7
:1011D00020462946BDE83840FFF7B2BF204605F15A
:1011E0000041FFF7ADFF404261EB410138BD2DE901
:1011F000F04786468C460846089E154674461946B2
:10120000002B40F0C2808542B2FA82F245D94AB141
:10121000C2F1200300FA02FC2EFA03F3954043EAE0
:101220000C0C94404FEA154EA8B2BCFBFEF8230C00
:101230000EFB18CC08FB00F943EA0C43994528D96A
:10124000EB1808F1FF3704D2994502D9A8F102073B
:101250002B44A3EB0903A4B2B3FBFEFC0EFB1C332F
:101260000CFB00F044EA0344A04214D92C190CF101
:10127000FF3304D2A04202D9ACF102032C44241A59
:1012800043EA07401EB1D440002334607360BDE8D8
:10129000F0874746DDE76346F1E792BB431B012138
:1012A0004FEA154EAFB2B3FBFEFC200C0EFB1C3315
:1012B0000CFB07F840EA0343984562D9EB180CF1A0
:1012C000FF3004D2984502D9ACF102002B44A3EBC5
:1012D0000803A4B2B3FBFEFC0EFB1C330CFB07F7A8
:1012E00044EA0344A7424ED92C190CF1FF3304D22F
:1012F000A74202D9ACF102032C44E41B43EA0040AC
:10130000C0E7C2F1200320FA03F1954090402EFA85
:1013100003F303434FEA154EAFB2B1FBFEFC0EFBE5
:101320001C10190C0CFB07F841EA0041884504FA2F
:1013300002F422D969180CF1FF3004D2884502D991
:10134000ACF102002944A1EB08019BB2B1FBFEFC09
:101350000EFB1C110CFB07F743EA01439F420ED919
:10136000EB180CF1FF3104D29F4202D9ACF102011B
:101370002B44DB1B41EA004192E76046E3E761460C
:10138000F7E76046A3E76346B7E7834206D916B995
:10139000002108467BE7C6E900E0F9E7B3FA83F7E6
:1013A0008FB9834201D3724508D8BEEB020460EBCB
:1013B000030301209C461EB9002168E73846FAE77E
:1013C000C6E9004CF8E7C7F1200CBB4022FA0CF448
:1013D0001C432EFA0CF120FA0CF3B84001434FEAFB
:1013E00014490EFA07F5B3FBF9F81FFA84FE09FB5E
:1013F00018300B0C08FB0EFA43EA00439A4502FA38
:1014000007F240D9E31808F1FF3004D29A4502D917
:10141000A8F102002344A3EB0A0389B2B3FBF9F855
:1014200009FB183308FB0EFE41EA03418E452CD917
:10143000611808F1FF3304D28E4502D9A8F10203E6
:10144000214443EA0040A0FB0298A1EB0E01414574
:10145000CE46434602D306D14D4504D2B9EB020E27
:1014600068EB04030138002EA6D0B5EB0E0261EB49
:10147000030101FA0CFC22FA07F34CEA0303F940DA
:10148000C6E9003198E74046C5E74346D9E710F87A
:10149000012B11F8013B012A28BF9A42F7D0D01A3C
:1014A0007047034613F8012B002AFBD1181A0138A4
:1014B00070470000000000002DE9F04F8DB081461C
:1014C0000D4669488368DB683A219847061E08DBA9
:1014D000002E40F0C08034460396CDF8109005955C
:1014E0000DE062482EF074FF002004E001466048E1
:1014F0002EF06EFF00200DB0BDE8F08F0134632C9C
:1015000072DC594883681B6906AA032198470028A2
:10151000ECDB0698FEF736FF06460F460798FEF707
:1015200031FF4FA3D3E90023FFF7C0F802460B4673
:1015300030463946FEF7DAFDDFF838A1DAF8005018
:10154000FFF74CFA0746DFF830B14BF82500089852
:10155000FEF718FF804689460998FEF713FF40A35F
:10156000D3E90023FFF7A2F802460B46404649465E
:10157000FEF7BCFDFFF732FA0646DFF8008148F8B7
:1015800025000A98FEF7FEFECDE900010B98FEF754
:10159000F9FE33A3D3E90023FFF788F802460B4690
:1015A000DDE90001FEF7A2FDFFF718FADFF8D090A1
:1015B00049F825000021384601F0C8FD4BF8250008
:1015C0000121304601F0C2FD48F82500022101F05A
:1015D000BDFD49F825000135CAF80050952D8DDD77
:1015E0000022CAF8002089E7039EDDF81090059DCF
:1015F000244B1B7833B11F4B1B68632B02DD214B3F
:1016000000221A701F4B1B783BBB314612E01A4A6E
:1016100052F8232049F821204A1C184850F823008A
:1016200049F822008A1C164850F8233049F8223025
:1016300001360331EB1E8B420BDD0E4B1B6833442E
:10164000114A82FB0502C2EBE5729B18DFD5963387
:10165000DDE701204FE700204DE700204BE700BF0A
:101660000000000080842E4184C803007020040024
:1016700080200400B82700206025002008230020D7
:10168000B0200020880E002056555555000000005F
:1016900010B5082140F6014007F0A8FCD8B1044677
:1016A00008210C301FF01AFB02460F4B93F8D8307C
:1016B00013F0010F0BD10D484FF0005130F062FED6
:1016C0000022214640F6014007F0E2FC10BD04A1D3
:1016D000D1E90001F2E76FF06800F7E7AFF30080AF
:1016E0009088000200800020000000201088000286
:1016F0002DE9F843D0E90C35D0F82C805C19303452
:10170000A0450F46164619D81D4DA3FB05011AA387
:10171000D3E90023FFF7FCFC0346A4EB0800A0FB81
:10172000050123F07F4414A3D3E90023FFF7F0FC65
:1017300020F07F403C603060BDE8F883DFF84090E7
:101740000DA3D3E90023A8FB0901FFF7E1FC044640
:1017500005F1300008A3D3E90023A0FB0901FFF73E
:10176000D7FC24F07F4420F07F403C603060BDE82F
:10177000F88300BFAFF300808D49FD1A0700000019
:1017800000CA9A3B00000000002800F046812DE9C5
:10179000F04FC94C94F86A2012F001058DB040F06A
:1017A000788194F82500FF2300F0030084F82630A8
:1017B0001BF09EFB94F86A00420727D494F8292076
:1017C00094F8353004EB820204EB8303D66AD3F835
:1017D000388086B1B848314615F050F933785B0649
:1017E00005D5062110F09CFB002800F05481B2487A
:1017F000414615F043F9337813F00E0F40F09E8008
:10180000236A93B10C200DB0BDE8F08F2A4604F195
:101810006B01C0F3C0001BF0EBFCFF2884F826002E
:10182000CCD028461BF07EFBC8E712F0D7FD8146DE
:10183000002800F0548112F0DDFD8246002800F0FF
:101840004B8115F027FC0546002800F04A81D0F8AE
:1018500088004FF6FF732B8505F11C0B002800F064
:10186000208105F17C0205F1780110F065FBB5F8E7
:10187000763023F4EF6323F0070343F4887343F0D7
:101880000103A5F8763095F8393003F03F0363F093
:101890007F0385F8393095F88E3023F0070385F8FB
:1018A0008E3095F83C3023F00703002785F83C3054
:1018B0004FF4C023C5F888312846C5E91277C5F82A
:1018C0008870A5F88C706F86C5F82E7085F83B700F
:1018D0002F65A5F88E71A5F8847117F039FD85F88C
:1018E0005071C5F8549115F05DFE95F8943160F390
:1018F000020385F8943115F05BFE95F8943160F39E
:10190000C50385F8943195F8803167F3410385F874
:1019100080310121284616F057FA05F1D40017F05E
:10192000D1FAC4E9189AC4F820B0C5E905772F7038
:10193000ED611CF057FD002840F0AF8094F8243092
:101940000121C3F342030DF12B008DF82B3010F071
:101950008FFC0246002862D098F80110304614F03F
:1019600051FE31235549A360554BB4F86870A0FB74
:1019700001010025C01841F107014DA3D3E900235F
:10198000C4E9055525706560E560FFF7C1FB20617E
:1019900011F07AFE00F109083FB9357805F00F051E
:1019A000A5F10105B5FA85F56D0994F824002369C0
:1019B00065F3000010F0010584F8240036D0414A98
:1019C00009920020106002253F4A404F04930BAE5D
:1019D000019305920321CDE902000694434600904D
:1019E000089607972A460B9511F050FD314612F0E4
:1019F000B1FDA0B9364905914AF2D8330093CDE93B
:101A00000300CDE90100079708960694434601229A
:101A100003210B9511F01EFD2EE014F043BD236A47
:101A2000002B3FF4EFAE14F0FBFCEBE6254A29480F
:101A3000049303F247130694029591211360A7FBC8
:101A4000000301FB0731214B07931F4B05934FF612
:101A5000FF730992022703930BAE15A3D3E900236A
:101A60000B970896FFF754FB4346CDE900503A46E2
:101A70002846032111F00AFD314612F06BFD0028C3
:101A8000CDD194F86A300120034384F86A301BF00A
:101A900011FA0020B7E61220B5E614F0C1FC0320CD
:101AA000B1E605F18000C5F88800DAE6AFF3008002
:101AB0008D49FD1A070000001082002000CA9A3BE1
:101AC0008C49FD1A0482002081660100DD37010087
:101AD0009D610100002AE784484612F085FC07203A
:101AE00091E6504612F08CFC484612F07DFCF6E779
:101AF00070B590F824308AB0C3F342030D46044613
:101B000001210DF1230016468DF8233010F0B0FBB3
:101B100071780246284614F075FD1F491F4AA0FB44
:101B20000131981841F1070119A3D3E90023FFF708
:101B3000EFFA23699842054621D21B1A002201922E
:101B4000174A0293174BA21AA3FB023202219209F1
:101B500000230A4409AE099113490591CDE90333E5
:101B60000321D2B206960093184611F0EFFC3146DD
:101B700012F0F0FC38B9256100200AB070BDFBD925
:101B8000C21A0023DBE70C200AB070BDAFF300805F
:101B90008D49FD1A0700000000CA9A3B8C49FD1AC6
:101BA0001082002009CB3D8DDD37010000000000D0
:101BB0002DE9F04F05468BB08B46012002219A4655
:101BC00014461EF023FB002202218146012010F062
:101BD00003FA39494FF4D072284610F08DF9C61C2B
:101BE000F6B2364B009532460121002011F0C6FCBA
:101BF00010F0FD0F0CD0324A3249334840F6320320
:101C00002EF0FBFB404080F311884FF0030002DF11
:101C10002E4BA4FB0348204625A3D3E900234146CD
:101C2000FFF776FA089506952B690493284B20F068
:101C30007F47A7FB0331E01A264B07934FF00702BB
:101C4000254B059302FB07114FF6FE7368EB01016C
:101C500003934FF47A720023FFF75AFACDF800B0DD
:101C6000CDE90170534632460121002011F0F2FB0C
:101C700010F0FD0F0CD0124A1249134840F64703EA
:101C80002EF0BBFB404080F311884FF0030002DFD1
:101C9000B9F1000F02D10BB0BDE8F08F0122022193
:101CA00010460BB0BDE8F04F10F096B9AFF30080CE
:101CB0008D49FD1A07000000501C00203D700100F6
:101CC000986C04005C6D04007C25040000CA9A3BFB
:101CD0008D49FD1AE56F0100DDC201000000000022
:101CE0002DE9F043C469228D4FF6FF739A428DB0FF
:101CF00000F088800546204617F0B2FD95F82830A0
:101D0000012B00F00F81022B00F00281002B00F06C
:101D1000E18094F85071002F40F0FD80E68DB4F81A
:101D20003080002E71D1AA8C08F101060023CDE984
:101D30000A33B6B2002A70D094F93930002BC0F2C1
:101D400048810023A4F88A3195F82630D90740F15C
:101D5000EF800023A4F88E310DF127023146204692
:101D600017F032FB743000F04681B4F888312BB1A3
:101D7000B34240F20D819B1BA4F88831B4F8843142
:101D80002BB1B34240F2FB809B1BA4F88431258E1B
:101D900017B9A84500F0EA800135ADB294F8D1300A
:101DA00013F001065AD1DDE90A130A46002B40F070
:101DB000ED80002900F0DC801E461846228DE46983
:101DC0000694CDE903570332A74D0290CDE90016E2
:101DD000D2B201210020059511F0B8FB10F0FD0FE3
:101DE00010D012F0E1FB84420CD0A04AA049A148D7
:101DF0004FF4A3632EF001FB404080F311884FF0B5
:101E0000030002DF0DB0BDE8F083AA8C4644002336
:101E1000CDE90A33B6B2002A8ED195F82630DA071A
:101E200097D4B4F88A31002B00F08280B34240F29C
:101E3000FA809B1BA4F88A31B4F88E31002B8BD02A
:101E40009E4280F0DE809B1B9BB20022062BA4F8F2
:101E50008E31228600F2AC8001277DE794F939208B
:101E60006FF30003002A84F8D13077DB94F8760012
:101E7000C0F3C00100F007001CF01AF9B4F86E209E
:101E8000B4F86C30134403F2D51303447A4A7B4808
:101E90000721E3FB0021104671A3D3E90023FFF7DC
:101EA00037F9DDE90A1320F07F4220692261904270
:101EB00035BF161A801A002000260A46002B7FF430
:101EC0007DAF56EA010C7FF479AF002850D0194657
:101ED0001E4673E794F88E3003F01803182B7FF436
:101EE00018AFA18DB4F886218B1D9A42C4BF931FF1
:101EF0005B1AB4F88211CCBF9BB21346994200F032
:101F00008C80A4F88231A4F88431A4F8882100E7F9
:101F10003D2784F85071394620460DB0BDE8F043A6
:101F200015F020BC0023A4F88831A4F88431F0E631
:101F3000B4F88E31002B83D1628DB4F88C3140F22D
:101F4000E24101FB02F242F2107101FB0323013B6B
:101F5000B3FBF2F39BB2A4F88E316FE794F87700ED
:101F6000012100F007001CF0A5F887E73D4615E7C2
:101F7000002D4BD000261146304633461EE7002385
:101F8000A4F88431204617F0BFFA00E7304615E781
:101F900012F076FA014600283BD00023A4F88831DD
:101FA000238DC3801B230371006812F03BFAE5E622
:101FB00094F939309342BFF6CFAEB8F1000F7FF4F9
:101FC0004BAFD4F878315A08DB0743D4C4F87821F2
:101FD000C2E628460AAA0BA904F1D409FFF788FB38
:101FE000484616F0B1FF18B3484616F0ADFF18B3D7
:101FF00000232386A5E69DF82710204615F0B2FBA6
:1020000000E70821204615F0ADFBFBE6002FB1D11B
:10201000F8E60123A4F88831B0E6B4F88811002965
:102020007FF477AE6FE73E21204615F09BFBE9E693
:10203000FF2015F059FBD7E70246D4E91E010FF047
:1020400093FF0028D4D194F83C30580744BFA38DA7
:10205000238676E642F00042C4F87821FCE600BF11
:102060008D49FD1A07000000A56F0100986C04005F
:10207000C06D04007C2504008C49FD1A00CA9A3BFF
:102080002DE9F04F87B0CDE90423BDF84420037853
:102090000292BDF84820BDF84080BDF84C50468EF5
:1020A000B0F82E90B0F814B1019104460392002BC1
:1020B00000F08E80013EB6B2A368D4F80C71721B9A
:1020C00092B2002B009209DAE168626823F00043C3
:1020D00091422CBF7F18BF18A360FF1A009A638D2E
:1020E00013FB02F39BB2B3FBF8F218FB02F080B2D1
:1020F00083421FFA82FA5AD2C01A40F2E2425E4983
:1021000002FB00F0A0FB010159A3D3E90023FEF775
:10211000FFFF20F07F400744D94494F839304D4404
:10212000AD1B554440F2E246DB09E58506FB08F5A8
:1021300052D1524A5249534840F6BD032EF05DF940
:10214000404080F311884FF0030002DF0026A946CB
:10215000029BA385039BA4F88C3129462046A4F852
:102160002A8017F06DF9484BA18D2B44881DB3FBD5
:10217000F5F39AB29042A4F8862102D2521A063A96
:1021800092B2019BA4F8822113B10023A4F88E31EE
:102190003B464A4631462046FFF70AFD94F8803117
:1021A00043F0010384F8803107B0BDE8F08F08FBED
:1021B0001231314840F2E24389B203FB01F1A1FB45
:1021C00000012BA3D3E90023FEF7A2FF3F1AA3E7E8
:1021D0004E445E44B6B26FE7226C0099A36CDFF800
:1021E00098B002FB1133A3641CF04CF9814694F8BB
:1021F0007401C0F342001CF047F9049B814406FBC4
:1022000003F305FB09F9236509F574291F4B09F24E
:102210003F29A3FB09394FEA994303FB0AF02364E2
:10222000A5EB0309A36C6A080344963A934228BFBE
:102230001346C4E911230023C4F87C31A0FB0B0131
:102240000BA3D3E90023FEF763FF114B059A3F1A56
:10225000A3FB0230800A06FB00F005A3D3E90023AC
:10226000A0FB0B01FEF754FF20F07F4670E700BF94
:102270008D49FD1A0700000000CA9A3B986C0400C3
:10228000303E04007C2504007FC3C90183DE1B436C
:102290005917B7D1000000002DE9F04F0B6891F8F5
:1022A0001180D3F80090037F176895B00446C3F3FC
:1022B0008013D0F81E008DF83F30B8F1FF0F638C0B
:1022C00012900E461546ADF84C300DF1480A49D132
:1022D0009AE803001090ADF844102346E28D53F8BD
:1022E0002EBB9B78AB722A81D4F82A306B60D4F86D
:1022F0003A30AB6105F1180094F83E3003710521C6
:102300000FF0B6FF6B7F00F03F0060F305036B77C3
:1023100094F83F30C3F30402AA77A28EEA81012821
:1023200003F01F0392B205D91B3303F01F030B2BDD
:1023300000D81ABB0022C9F8142095F8203062F3A7
:10234000000385F82030E5680126584621462671AD
:1023500012F05CF828682E71294612F063F815B067
:10236000BDE8F08F10AA0DF13F0140461AF0D8FAEF
:102370009DF83F3002338DF83F30AEE733680021DF
:102380005960E38EEA892B8240F2E24303FB02F2BA
:102390000B92638E0D93384617F066F894F83F2041
:1023A00097F87411520962F3430187F874111CF015
:1023B00069F80C9097F87401C0F342001CF064F8BF
:1023C0000C9A0B99104401FB00F0B94A00F57420F7
:1023D00000F23F20A2FB00204A08800C963A686277
:1023E000AA6294F8312040F2E24302FB03F3AB63AC
:1023F000238FA7F88C31384617F022F80B99AD4B94
:10240000AD4AC7F890210B44B3FBF1F39AB2A7F899
:102410008621298A881D824204DDC1F57F41FA3177
:102420000A4492B2A7F882216B68C7F87831234634
:1024300013F81C2FC2F340120C92DA0700F1FB8054
:102440004FF48073A38399F826001AF0F1FF04F18A
:102450002B03002800F0EB80626AC4F82B20228D49
:102460009A80B8F1FF0F00F00581BAF80430129895
:10247000A4F82930C4F825009DF83F30A3771098C0
:10248000BDF84430C4F81F00A4F82330EB896386FC
:102490002B8AA386B7F88C31E38697F87431C3F39F
:1024A000420384F83830384614F000FEA881E080FA
:1024B00021465846746811F0A9FFAB89E3801C23BC
:1024C00023710C9BD4F80080002B40F0C9800C9B3A
:1024D00023772146404611F0A5FF95F85B00B5F83B
:1024E0005080B5F85240012100F007001BF0E2FDDA
:1024F000444404F2D514DFF8C48104448246704891
:102500000721E4FB080131230024BB607C6066A343
:10251000D3E90023FC60FEF7FBFD20F07F4038612B
:102520000B9B6D6A0D995D1BF36840F2E24202FB62
:10253000013303F2B241A1EB0A0A22460221012033
:102540000FF04AFD484614F055FA0246AAFB08016E
:10255000924655A3D3E90023FEF7DAFDCDF80490A7
:10256000B3685849009120F07F480AF102023A3BD3
:10257000D2B220464344012111F042F801287FD015
:1025800099F82430DB0763D4384614F08FFD4B4BA9
:10259000A5FB03A9044644A3D3E9002350464946BA
:1025A000FEF7B6FD484BB668484A079220F07F45D3
:1025B000A5FB0331BAEB0300454B059340F2D11361
:1025C000069708933B694FF0000BCDE903B34FF03A
:1025D000070303FB051169EB01014FF47A72002335
:1025E000FEF796FD03343A3EE4B2CDE90150CDF852
:1025F0000080334622460121584610F02BFF10F090
:10260000FD0F0CD0334A344934484FF4E9732DF0B0
:10261000F4FE404080F311884FF0030002DF0122F6
:10262000022110460FF0D8FC15B0BDE8F08FC4F8B9
:102630002B00988015E7274A29492848F8232DF0D0
:10264000DCFE404080F311884FF0030002DFF7E624
:102650000023012200931846114610F08FFF93E7E4
:102660006B7F43F040036B77281D19F049FF01236E
:10267000E8832DE70022C4F82520A4F82920FBE6F2
:1026800011F092FF81453FF47BAF124A1549134880
:1026900040F279232DF0B1FE404080F311884FF0D5
:1026A000030002DF6CE700BF8D49FD1A0700000040
:1026B00083DE1B437FC3C901404B4C0000CA9A3BD9
:1026C0008C49FD1AA1C201008D49FD1A71C2010099
:1026D000DDC201005C7204005C6D04007C25040016
:1026E000D8690400B87204002DE9F04F8FB00DF1E5
:1026F00037010446DFF8F0A0DFF8F0800DF1360076
:1027000011F000FF9DF836309DF837B00B9310F0B4
:10271000BBFFDAF80060A6FB085631A3D3E900231B
:102720000027814631462846FEF7F2FCCDE90777BF
:10273000069420F07F44DAF804002D4B0593A0FBAB
:10274000080127A3D3E90023FEF7E2FC294B20F080
:102750007F40A4FB0331072202FB0411CDE9037083
:10276000E81A66EB01014FF47A720023FEF7D0FC01
:102770000097CDE901404B460B985A46032110F0D3
:1027800069FE10F0FD0404D06FF08B000FB0BDE8BF
:10279000F08F1948194A00232AF036FC20B9DAF8DC
:1027A0000C000FB0BDE8F08F9DF837209DF8360083
:1027B00000942346032110F0E1FE10F0FD0F0CD031
:1027C0000F49104A1048E4232DF017FE0F482DF052
:1027D00014FE0C48E4212DF009FE6FF07300D5E7DC
:1027E0008D49FD1A07000000B489002000CA9A3BF9
:1027F00019D701008D49FD1A9C890020447B0B00EC
:1028000098750400287504007C250400E075040018
:1028100038B50F4D044610F037FFA96810F036FFA9
:10282000696803460B48B3FBF4F4A1FB00011C44A8
:1028300005A3D3E90023FEF76BFC20F07F40844220
:1028400094BF0020012038BD8D49FD1A070000000B
:10285000B489002000CA9A3BF0B5C468636883B0AD
:102860000546002B63D11DF03DF800201DF090F8C7
:10287000002108461DF07EF80022252108201DF0C9
:10288000BDF8454B019301A81DF0A0F8434940F263
:102890005B601DF043F9237AC3F3420262F306132F
:1028A000204623721CF000F81AF096FE58BB637A9B
:1028B0009B071FD127682E6838461BF095FB0644FE
:1028C0006A6806F1090101201DF074FA1DF032FB5F
:1028D000204614F09BF8811C3246C9B238461BF0E2
:1028E00091FB054670BB20461BF026FB88B90020F3
:1028F00003B0F0BD01201AF0D1FA4178821C0078B3
:102900001DF0F8F9D6E7607A10F0030018BF012037
:10291000F1E7234A2349244840F22C432DF06DFD72
:10292000404080F311884FF0030002DFDFE793F8A7
:1029300020309A0797D01D4821461CF091FF1DF0CA
:10294000A9F8D4E7164A1A49174840F214432DF063
:1029500054FD184B0721A5FB030301FB05310CA314
:10296000D3E90023FEF7D4FB1349024613482DF0A8
:1029700044FD404080F311884FF0030002DF10480F
:1029800021461CF06DFF1DF085F86FF08B00AFE75E
:1029900000CA9A3B00000000D6BE898E55555500EE
:1029A00088780400A06704007C25040091E1010000
:1029B000303E04008D49FD1A30790400047904008A
:1029C00095E40100000000002DE9F041C468A289EF
:1029D0004FF6FF739A4282B000F0C78005461CF0A4
:1029E0008DFA2B89628AE08A1A4492B21044637F7E
:1029F000A28280B2411CE1825E064FF0000161823A
:102A000004F1180100F18C8003F03F000B46A17F18
:102A1000009004F11F0019F02BFD0646D4E90B23AA
:102A20001344D4E90D0200210244E1626163A16A0A
:102A3000A26394F872208B4228BF0B4612F0040266
:102A4000236377D01CF04EFF00201CF0A1FF201D57
:102A50001CF0BCFF2389A17A40F25B6043EA01418C
:102A60001DF05CF830461BF0DFFA214658481CF098
:102A7000F7FE96201DF092F994F85A2094F85B0026
:102A8000C2F3C003002102F0070200F007001DF0AE
:102A9000AFF820461CF092FA27682E6838461BF0E3
:102AA000A3FA06446A6806F1090100201DF082F9C4
:102AB00080461DF013FA00201DF02AFA236B94F8CB
:102AC0005B0003F13002A36B00F00700012103EB70
:102AD00042051CF0D1FF4544054494F85B0000F02A
:102AE0000700022824D004280CBF4FF4BC7328230D
:102AF00001211D441CF0C2FF28441DF0E1F9A18909
:102B000003313246C9B238461BF07CFA054698BB01
:102B100020461BF011FAD0B9002002B0BDE8F081C8
:102B20000A4603F03F03E18B19F0EEFC064675E719
:102B30001823DDE7D4E917010FF016FA002881D138
:102B400094F8723043F0040384F872307AE7214A33
:102B50002149224840F255132DF04FFC404080F3AC
:102B600011884FF0030002DFD6E71D4821461CF014
:102B700077FE1CF08FFFCFE7164A1A49174840F23C
:102B80004B132DF03AFC184B0721A5FB030301FB67
:102B900005310DA3D3E90023FEF7BAFA1349024623
:102BA00013482DF02AFC404080F311884FF00300B9
:102BB00002DF104821461CF053FE1CF06BFF6FF043
:102BC0008B00AAE7AFF3008000CA9A3B0000000028
:102BD00019F20100A8790400A06704007C25040014
:102BE00091E10100303E04008D49FD1AFC7904009A
:102BF000047904006DE1010038B50446002A43D091
:102C0000072A45D11D68E9174A0142EAD5624FEA11
:102C1000451CBCEB050C62EB0102520242EADC529D
:102C20004FEA4C2C1CEB050C41EB02004FEA801ED6
:102C30004EEA9C6E4FEA8C12B2EB0C026EEB000E69
:102C4000521941EB0E015868131841EBE071012B4A
:102C500071F100020DDB124818180FA3D3E900230D
:102C600041F10001FEF704FA0146204620F0CAFEB9
:102C700010E00C48181808A3D3E9002361F1000103
:102C8000FEF7F6F90146F0E7198833F0CEFD01E0D2
:102C90006FF0850038BD00BF3AA39500000000002A
:102CA0009DD14A00632EB5FFF0B585B014A7D7E9D2
:102CB0000067CDE90067FDF7CFFB04460D460A9B90
:102CC0004FF00040D840FDF75DFB22462B46FDF754
:102CD000C3FB02460B46CDE9022332463B46FDF7D5
:102CE0004BFE40B902A90C9B0B9AD1E9000123F0DD
:102CF000C7F905B0F0BD6946F5E700BFAFF3008046
:102D00000000C0FFFFFFDF412DE9F04782B007461A
:102D10000D4616461C46DDF828A0C868FDF744FBA2
:102D200080468946F068FDF73FFB02460B46404669
:102D30004946FDF791FBECB180468946E068FDF716
:102D400033FB02460B4640464946FDF7CDF9804627
:102D500021F00049DAF80C00FDF726FB02460B468D
:102D600040464946FDF7A2FC0DA3D3E90023FDF739
:102D7000EFFD50B10B9B009353463246294638462F
:102D800023F050FA02B0BDE8F0877C69064B00934F
:102D900040F24313054A06493846A0470120F1E7AF
:102DA0007B14AE47E17A943F78A70400C4A60400E0
:102DB0001CA70400000000002DE9F04788B004467D
:102DC0000D4616469A46109F3B4625F0E5FB002827
:102DD00040F0AE81814695F80080B8F1090F11D01E
:102DE000B8F1070F0ED0B8F1010F40F047813078ED
:102DF000012840F08981DAF80000FDF7D5FAC7E92B
:102E0000000197E1B8F1070F20D0B8F1090F40F0A9
:102E100099803078072800F0AB80092840F0EA80DC
:102E2000336913F1800F00F0FA8065696FF07F025B
:102E3000039202939E4B01939E4B009367239E4AFD
:102E40009E492046A8474FF0010973E12B69002BEA
:102E50003BD13369002B48D1F6684FF060513046C2
:102E6000FEF7D6F8002850D04FF060513046FDF7FD
:102E700009FE9349FEF7CCF800284CD1B8F1070FB2
:102E800000F0E080DAF80060E868FDF78DFA0446AB
:102E90000D463046FDF788FA07AB029307F10803A9
:102EA00001930526009622462B46FFF7FDFE079963
:102EB000F9601F22304635F00FFEFDF763FA01F18D
:102EC0000041FDF763FDB86134E1656900220392BA
:102ED00002937C4B01937C4B00935B23764A7749AA
:102EE0002046A8474FF0010924E1656900220392BA
:102EF0000293744B01936F4B00935C236E4A6F49AE
:102F00002046A8474FF0010914E131464FF06050C8
:102F1000FDF7B8FDADE7656900224FF07C53CDE9C0
:102F200004233046FDF740FACDE90201674B0193D7
:102F3000674B00935D23604A66492046A8474FF0DF
:102F40000109F7E06669404621F0F4FB05460920D7
:102F500021F0F0FB039002955F4B01935F4B0093D0
:102F60006023554A5E492046B0474FF00109E1E031
:102F7000336913F5004F0FD065695A4A03920293E3
:102F8000594B01934B4B009362234B4A4B492046CC
:102F9000A8474FF00109CDE0F6684FF05E5130468A
:102FA000FEF736F800B34FF05E513046FDF76AFD8C
:102FB0004E49FEF72DF800283FF460AF6569002206
:102FC0004B4BCDE904233046FDF7EEF9CDE9020184
:102FD000484B01933E4B00936323374A3D492046BB
:102FE000A8474FF00109A5E031464FF05E50FDF7CC
:102FF00049FDDDE7666921F09DFB0546092021F0CA
:1030000099FB03900295344B01933B4B009366234D
:10301000294A33492046B0474FF001098AE04FF072
:103020006E51F068FDF7CCFF00287FF427AF65698B
:10303000324B00936823204A31492046A8474FF07D
:10304000010977E0E868FDF7AFF904460D46DAF8C4
:103050000000FDF7A9F902460B4620462946FDF778
:10306000FBF911A3D3E90023FDF720FB07AB07F120
:10307000080222F0BDFF079BFB605BE066694046EB
:1030800021F058FB0546012021F054FB03900295E6
:103090001C4B0193114B00938523074A104920468E
:1030A000B0474FF0010945E0140014001400243F1C
:1030B000B8B104001CB1040080B00400A4A704004F
:1030C0006F120333303E040038B1040074B10400C1
:1030D00080B1040054B1040098B10400D8AA0400DF
:1030E0008CAD04000080FFFFA4B104006F12833296
:1030F0000000F03EACB10400C8AA0400C0B1040056
:103100001CA70400E4B10400666921F013FB054626
:10311000012021F00FFB03900295084B0193084B0F
:1031200000938623074A08492046B047C14601E07C
:103130004FF00109484608B0BDE8F087E4B104004B
:10314000C8AA040080B004008CAD040038B5054660
:103150000A460849084B53F82200FDF79DFD044636
:1031600006492846FDF798FD01462046FDF78CFCF0
:1031700038BD00BF6666663F9C200400D0CCCC3DC5
:1031800008B5094838F0FFFC30B1074B196807480B
:103190002DF01EF9002008BD034B196804482DF0DE
:1031A00017F96FF00C00F6E784C803005020040004
:1031B0003820040008B5012904D0034903482DF044
:1031C00007F908BD0249F9E7F88B0400B0200400B4
:1031D000A820040010B588B012482DF0F9F8124B61
:1031E000D3F8B00728B108F085FF0F4B0022C3F8D1
:1031F000B0270DF10C0C0D4C0FCCACE80F00236880
:10320000CCF80030002300930222094903A808F0FB
:1032100087FA014608B908B010BD06482DF0D8F865
:10322000F9E700BFBC2004003C02002050CC0300A2
:10323000E0210400DC20040010B519B108482DF08D
:10324000C7F810BD044607482DF0C2F8204608F024
:103250001FFF054BC3F8B007044AC3F88C27F0E7FB
:1032600008210400282104003C02002071320000E3
:1032700001B1704708B531F0EAFA014601482DF076
:10328000A7F808BD3421040038B511461C46074D87
:10329000A5F8BA301A46284639F010F90022002362
:1032A0002946034829F096FA204638BDBC2700205D
:1032B0003C020020024A0260024A0260704700BFDE
:1032C000A42304008823040010B50446044B0360C3
:1032D000044B0360C02138F076FF204610BD00BFCC
:1032E000A423040088230400F8B500220FE0344929
:1032F00001F58043D3F8605850F8224002EB820376
:103300002B4403F59053043341F823400132032A40
:10331000EDDD2C4AD2F860380133C2F86038042B56
:1033200003DD13460022C3F86028002500274FF074
:10333000FF361EE005EB8503234403F59053043369
:103340001F4A52F82310FDF79FFB0134042CF1DDD6
:103350001D49FDF755FD0446B6F1FF3F06D0014675
:103360003846FDF737FE48B93C4600E02E460135A9
:103370002746032D04DC00240020E7E72E46F6E76D
:10338000104BD3F86438002B03DD013B0D4AC2F823
:103390006438032E0DD00D493846FDF71BFE50B999
:1033A000084BD3F86438002B07DC064B1922C3F80E
:1033B00064283046F8BD0326FBE70326F9E700BF83
:1033C000FC290020FC6900200000A0409A99193FC8
:1033D00008B54FF40040002129F080F809E00021F1
:1033E0000C4B586821F050FD4068FFF77DFF00F05E
:1033F0004DF9084B9A68D9685068FEF75DF840B1FE
:10340000044B586821F05CFF0028E8D002482CF0FB
:10341000DFFF08BDFC290020F02104002DE9F8435E
:10342000202932D004460E4615461F4603681B6805
:10343000984790BBD4F89080B8F1040F36D8C8EB09
:10344000C80904EB890909F1040EAC46BCE80F0079
:10345000AEE80F009CE807008EE80700C9F8186086
:1034600008F10103C4F89030D4F8BC3003F1240211
:1034700004EB8202566003F12A0244F82270013301
:10348000C4F8BC300020BDE8F8830D4835F044F89E
:103490000C4835F041F80120F5E70B4835F03CF8D1
:1034A00031460A4835F038F80120ECE73146084843
:1034B00035F032F80521074835F02EF80120E2E713
:1034C000082204003C220400542204008422040048
:1034D000A8220400DC22040010B588B0044601A82C
:1034E00024F00EFC034B01AA16212046FFF796FF9D
:1034F00008B010BD5966020030B5A1B049482CF0A3
:103500009FFD494B1860002204212CF086FD032802
:103510004BD1464B1B6813F0010F4ED004A823F08B
:103520005FFA434C434B04AA03212046FFF776FF82
:103530000BA824F001FB404B0BAA11212046FFF7FA
:103540006DFF2046FFF7C8FF12A823F0D3FF3B4BC7
:1035500012AA09212046FFF761FF19A824F04CFDAB
:10356000374B19AA19212046FFF758FF354B1B6826
:1035700013F0010F33D02C4D3348686021F0BAFDB1
:1035800004460021686821F069FCA860002C3DD148
:1035900083692E4AA2FB0323DB08234AD360FFF78B
:1035A000EFFD002838D121B030BD03220146284864
:1035B0002CF00EFF4FF0FF30F5E71D48254B036060
:1035C000254B03600023C0F89030C0F8BC30174B87
:1035D00001221A60214A22492EF0E9FC9EE7214B84
:1035E000194C0022029201924FF490420092104A2C
:1035F00053F8101C204634F0FDFB124B01221A60D8
:10360000164A194920462EF0D2FCB4E717482CF090
:10361000DFFE4FF0FF30C6E715482CF0D9FE4FF023
:10362000FF30C0E728CD0300FC2900203829002006
:103630003C290020E566020075680200A1670200CF
:1036400031690200782800207C280020ABAAAAAAB1
:10365000F022040088230400A423040064720020E4
:10366000B53200000C2A0020CF7E0300382304006E
:103670006023040008B5FFF73FFF08B9002008BD2C
:1036800001482CF0A5FEF9E7CC23040008B520B1D1
:10369000012806D0022808D008BD06482CF098FE64
:1036A000FAE705482CF094FEF6E704482CF090FE6B
:1036B000F2E700BFF023040074240400F0240400A7
:1036C00010B5044C02E054F8043B9847024B9C426E
:1036D000F9D310BD34CA03003CCA0300064B1B6873
:1036E0004BB110B55C1E044A52F82330984723466C
:1036F000002CF7D110BD704728CA030000293BD029
:1037000038B50D46046820462CF027FD0146C2005E
:1037100004EBC0035B8813F0010F0FD000EB5303E1
:1037200034F833001B1A994217D1A3185A8822F093
:1037300001025A8020462CF02CFD38BD0F4CAF23DF
:1037400022460F490F482CF058FE29460E482CF00F
:1037500054FEAF2120462CF049FE084CB7232246E8
:103760000A4908482CF049FE294609482CF045FE34
:10377000B72120462CF03AFE704700BF44250400D4
:10378000682504007C2504009C250400D425040041
:10379000FC2504002DE9F843154606684B420B4012
:1037A00001F1FF3919EA010904D0032B4BD84C462B
:1037B000994603E00C46042940D90423621E2242A4
:1037C00045D1002D67D0B268B2EBD50F66D961192B
:1037D000C91A0B31C90830462CF00CFD07460028E9
:1037E0005FD0014630462CF037FC00EB0908A044BE
:1037F00008F1FF38B8FBF4F804FB08F8A8EB090857
:1038000008EB0504073424F00704414630462CF049
:10381000A4FC0546A41BE410874228D3EF0006EB66
:10382000C5035B8805EB53039C422AD33E4473884F
:1038300043F0010373804046BDE8F88311462CF045
:1038400014FD8046F7E74C4699460423B6E7164C2C
:103850004FF4A2732246154915482CF0CEFD1548A9
:103860002CF0CBFD4FF4A27120462CF0BFFD024698
:10387000394630462CF03AFC394630462CF07DFC77
:10388000CCE72246294630462CF030FC2146304613
:103890002CF073FCCAE74FF00008CCE74FF00008AB
:1038A000C9E74FF00008C6E74425040038260400A5
:1038B0007C2504005426040070B5B2F5802F1FD279
:1038C0000346042A2CD9043AC81D20F007000A44F4
:1038D00022F00702121AD508172A31D9186085601C
:1038E0000023C360B5FA85F1C1F1200EC1F12401B6
:1038F0008900CE1DF1084B1CAB4231D8002345E0B6
:10390000344C40F2EB132246334934482CF075FD19
:1039100033482CF072FD40F2EB1120462CF066FD8E
:103920002C4C4FF4F97322462E492C482CF065FD9F
:103930002D482CF062FD4FF4F97120462CF056FD15
:10394000244C40F2FB132246284924482CF055FD14
:1039500025482CF052FD40F2FB1120462CF046FD8C
:103960001C4C4FF40373224621491C482CF045FDA2
:103970001D482CF042FD4FF4037120462CF036FD1B
:1039800003F1040C002440F82C4001337345F7DBAD
:103990004C00A4B244804FF0000CA0F800C044F0EA
:1039A000010444806B1A4FEA430E26F00704A51C5D
:1039B00020F805E0015322F00704951C20F805C00B
:1039C00002440353538843F0010353802CF0D5FB8A
:1039D00070BD00BF44250400742604007C2504004B
:1039E0008C260400A4260400C8260400E426040053
:1039F00010270400F8B540B106460378457884786E
:103A000004EB83040444002711E00B4CC623224638
:103A10000A490B482CF0F1FCC62120462CF0E6FCAC
:103A200001342046FDF73DFD013004440137AF422B
:103A3000F6D3A01BF8BD00BF3C2704006C27040090
:103A40007C2504002DE9F04F91B0059203931346B5
:103A500002F004020092C3F3C20210F003030193C8
:103A600040F0708280468A460132041D002850D002
:103A7000B8F1000F05D0A4EB08030433534500F25E
:103A80006482039B5D1E019B0493069302930026B0
:103A90004FF0FF3B0427B946B8F1000F01D0039B5C
:103AA0002360531E0793002A40F36181059B13F0A6
:103AB000020229D00120A4EB08018B081AB1B1F54C
:103AC000007F80F06881029A0F2A00F27481B8F1B9
:103AD000000F00F08481DBB2029901F140026A44D8
:103AE00002F8103C02F820BC002800F0748163F05A
:103AF0007F0301F140026A4402F8103C049B013349
:103B00000493029B0133029304340022CC464046C6
:103B10003DE001F0070A5444CAF1080AA8E700266C
:103B200034E0002632E0002630E00827BC462DE0D5
:103B300025292BD10BF1010B01260427BC4625E0DA
:103B40004729EED82A2914D32A39C9B24FF0010ED9
:103B50000EFA01F14FF6DA7E11EA0E0F16D111F0CE
:103B6000625F40F0C28011F0010F40F08D800026AE
:103B70000CE0252903D10BF1FF3B002606E001D91B
:103B8000002603E0202901D02329CCD11D466B1C3F
:103B90006978002900F04E81002EC9D07A29BED85C
:103BA0004C29CDD34C392E2962D80FF2080E5EF87D
:103BB00021F000BF8D3B0000713C0000713C000013
:103BC000713C0000713C0000713C0000713C000041
:103BD000713C0000713C0000713C0000713C000031
:103BE000713C0000813C0000713C0000713C000011
:103BF000713C0000713C0000713C0000713C000011
:103C0000713C0000713C0000EB3C0000713C000086
:103C1000813C0000813C0000EB3C0000EB3C0000DC
:103C2000EB3C00008D3B0000813C00002B3B000082
:103C3000713C00008D3B0000713C0000473D0000DE
:103C4000813C0000473D0000713C0000713C0000D9
:103C50004F3D00007B3C0000813C0000713C0000B7
:103C6000713C0000813C0000713C0000753C00008C
:103C700000268BE70427BC4688E70427BC4685E777
:103C800029786C2925D000263C44013CB4FBF7F48C
:103C900007FB04F4254620B1211A6144514500F286
:103CA0005781002A58D1BCF1040F00F0A980BCF163
:103CB000080F40F0AD801A99073121F0070101F19A
:103CC00008051A95D1E9008908B1C4E900890834CA
:103CD0005CE713F8021C6C2903D000260427BC46BD
:103CE000D2E700260827BC46CEE729784C291AD00F
:103CF0001A99073121F0070101F108061A96D1E956
:103D00000067073424F0070440B1211A08315145F7
:103D100013D829784C2913D0C4E900670834002649
:103D20000827BC4632E71A99073121F0070101F153
:103D300008061A96D1E90067E3E76FF01B00FEE082
:103D4000C4E90067EAE700260427BC469CE7324640
:103D500000260427BC4697E72C46E14680461A9A7F
:103D6000111D1A9112680392079A1D4694E67D4B25
:103D7000039A9A4204D37C4B9A420AD3002300E070
:103D80000023002B7FF492AE059B03F0020200207B
:103D900091E60123F5E7754C40F27B2322467449F6
:103DA00074482CF02AFB74482CF027FB40F27B214E
:103DB00020462CF01BFB6D4C4FF4207322466C49BF
:103DC0006C482CF01AFB6D482CF017FB4FF4207157
:103DD00020462CF00BFB069B0133069391E610B1B5
:103DE0000AF1010A8DE6009B13B10AF1020A88E686
:103DF0000398FDF756FB00EB0A0303F1020A80E685
:103E00001A990D1D1A95096800B121600434BDE6A8
:103E1000E146564C40F2C5232246554955482CF000
:103E2000ECFA494656482CF0E8FA40F2C521204603
:103E30002CF0DCFA8046231AB3F5806F13D210B34E
:103E4000002202609B080370009B03B3069BC370B3
:103E5000049B88F802309BBB019DDDF80890DDF8DB
:103E600010B0039F4DE0414C40F2D123224640491F
:103E700040482CF0C2FA43482CF0BFFA40F2D1215E
:103E800020462CF0B3FA5344A3F1080057E0069BF8
:103E90004370DDE701339842DED903F140026A4402
:103EA00012F8101C12F9102C002AF3DA01F07F012D
:103EB000A4EB0802013252454DD804F8011BE9E792
:103EC000019B0298E7E7009B43B305F140036B4475
:103ED00013F8203C04F8013B019EA4EB0803334493
:103EE000013353453AD805F140036B4413F8103CB5
:103EF00004F8013B32463946204638F0DFFA3444B4
:103F00000135A94519D9BBF1000FDCD005F14003FB
:103F10006B4413F9103C002BD5DAF1E705F14003AF
:103F20006B4413F8103C58F82370002248F8232003
:103F30003846FDF7B6FA461CCFE7A4EB080011B0EF
:103F4000BDE8F08F6FF00D00F9E76FF01B00F6E7AA
:103F50006FF01B00F3E76FF01B00F0E76FF01B0042
:103F6000EDE700BF88C60300F0CC04003C27040046
:103F7000303E04007C25040084270400A8270400A8
:103F8000C4270400DC2704002DE9F04F97B000AFF0
:103F900039617A617862B0B19B46D7F88030C3F35B
:103FA000C003FB613B69DBB17B6A93F80280C7F811
:103FB0000C80B8F1000F18D0D7F8803013F0010F43
:103FC0001FD1002312E0A74C4FF465732246A64987
:103FD000A6482CF012FA4FF4657120462CF006FA30
:103FE000786AFFF707FD3861DEE700237A6AD27846
:103FF0003A6242B1D7F8802012F0020F22D100229B
:1040000002E00123F2E7002202B9EBB1796A0D78F0
:10401000AA00BA600A464968B96102EB85057A6967
:10402000FAB1002B40F00581FB68002B00F01081F5
:10403000D7F8803013F0040F40F00E810020824644
:104040008046FAE00122DFE77B691BB15A463969F5
:10405000786A9847D7F8109048465C37BD46BDE867
:10406000F08FD7F81090E3B9FB681D444FF0000BB8
:1040700022E081440135013444451CD22A780023D2
:104080005AF82220194678692CF02FF9002EF0D02A
:10409000D7F888309B45ECD226F81B000BF1010BBA
:1040A000E7E70024A346D7F80C803E61D7F824A0A8
:1040B000D7F88460E0E73E69D7F8803003F0050365
:1040C000FB604FF0000AC7F810B0B3469CE0002533
:1040D000FB697BB9002D79D0D7F8803013F0010F40
:1040E00079D1FB68002B6FD10223A9EB030988E08B
:1040F0000125EDE74146B8692CF03DF90028E9D0EB
:104100006D46002387F82C30022387F82D308AB0C3
:10411000694611F1100237D012261AB1042E01DDC2
:10412000534B4B61002387F82830022387F829304E
:104130006ABB112E45DD122362B1042087F82C00E2
:10414000002087F82D0087F82E00012087F82F0027
:10415000F86A08616FF3000B6FF3410B6FF3820B8A
:104160006FF3C50B022161F3881BC3F30A0363F3EA
:10417000532B6FF31F5B002359463E4801F072FD3D
:10418000AD46A9F102093CE06FF00046C5E73346B1
:10419000082E01DDB86988610C2B01DDC1F81C8097
:1041A00001F12003002009E000F1300C07F1280E96
:1041B000F4441CF830CC03F801CB01300128F3D9CA
:1041C000B7E76FF01B03B7E701238EE7D7F880301E
:1041D00013F0020F15D000233246194678692CF0EF
:1041E00084F8D7F8843053B13B69D7F888209342DC
:1041F00005D2D7F8842022F8130001333B6101383F
:1042000081440AF1010A25463B6A9A45BFF424AF6E
:104210002C4614F8028B6B787A6A52F82360164B9E
:104220009E42FFF454AF154B9E42FFF461AF002550
:104230004EE707F144004FF0000A18B1FA6829462A
:1042400038F03CF9FB681D440026C7F804B032E0A2
:10425000002082468046F0E7C24607F134004FF066
:104260000008EAE73C270400F42704007C2504004A
:104270001028040050CB030088C60300F0CC0400D3
:104280000025FB696BBB002D61D0D7F8803013F09F
:10429000010F3AD0B8F10F0F2AD808F1010308F145
:1042A000300207F1280102EB010808F8149C5FFABC
:1042B00083F8013625463B6A9E4280F08E802C466C
:1042C00014F802BB95F801907B6A53F82930874AAD
:1042D0009342D5D3864A934201D30025D1E70125E5
:1042E000CFE75946B8692CF046F80028CBD0E0E774
:1042F000804C40F23E4322467F4980482CF07DF8B6
:1043000040F23E4120462CF071F8D7F8803013F08F
:10431000040FCED0BAF10F0F0CD80AF101030AF145
:10432000300207F1280102EB010A0AF8249C5FFA27
:1043300083FABEE76F4C40F24143224670496F4812
:104340002CF05BF840F2414120462CF04FF8D7F8B2
:10435000803013F0020F1CD0B8F10F0F0CD808F109
:10436000010308F1300207F1280102EB010808F807
:10437000149C5FFA83F89CE75E4C4FF489632246F5
:104380005D495E482CF039F84FF4896120462CF0E5
:104390002DF8BAF10F0F13D80AF101030AF1300218
:1043A00007F128010A4402F824BC0AF1020A5FFA64
:1043B0008AFA07F1580252FA83F303F8249C78E74B
:1043C0004C4C40F24B4322464D494C482CF015F8DA
:1043D00040F24B4120462CF009F8D7F804B07A6A35
:1043E000137887F854305378434487F85530D7F81A
:1043F000803013F0020F0DD1CAF3470387F857300E
:10440000D7F8803013F0010F06D113F0040F35D127
:10441000002302E00023F1E7002387F856307C6A8E
:1044200020683863786D20605A46B96820467E69F6
:10443000B047B0F10009FFF60FAE386B20605A4666
:10444000514607F13400B047002849DB09EB00046E
:10445000FA68BB681A443B6A02EB43015A463B695F
:10446000591A2846B047B0F10009FFF6F5AD4C44A3
:104470000025C7F82080D7F8849015E05346CCE794
:104480004FF0000A5A46012107F12C00B0470028DE
:1044900028DB044453464246594630462BF025FF5C
:1044A000002821DB044401353B6A9D4211D205F10D
:1044B000300307F12802134413F8143C87F82C301A
:1044C0007A6A52F82380B9F1000FD9D039F815A0D3
:1044D000D8E75A46002108467B699847A146BBE5C4
:1044E0008146B9E58146B7E58146B5E588C6030052
:1044F000F0CC04003C270400B42804007C25040010
:10450000D4280400014B1860704700BFAC0A00209B
:1045100080B505460E461746984628F029F803460A
:1045200038F0A8F80446DFF8189049F80030424601
:1045300039463046A84754F8090002F0BBFE00BFD8
:104540000800000038B504460D462022002137F04F
:10455000C3FFEB68E361AB68A3612B6823626B6800
:1045600063620022A2622A6922612BB1591E0B42AA
:1045700002D142F00102226104F12C00012200214B
:1045800037F06DFC00B938BD054C2E232246054995
:1045900005482BF032FF2E2120462BF027FF00BFCD
:1045A00008290400302904007C2504002DE9F04F7F
:1045B00089B09946002307930593436A8B42C0F064
:1045C000F38083468A46904600260127039662E0E0
:1045D000784C88232246784978482BF00EFF2946EC
:1045E00077482BF00AFF882120462BF0FFFE31464A
:1045F00058462CF036F80023059363E0DBF82030B2
:10460000DBF8002003EB8201039113F822106FF313
:10461000000103F82210C9B26FF3410103F8221020
:10462000DBF800305344DBF8102012F0010F05D105
:10463000DBF824108B4205D35B1A03E0DBF824106F
:1046400001390B40CBF80030DBF80C10994201D057
:10465000002709E042F00802CBF81020002703E011
:1046600058462BF036FF2746019C284626F04EFB85
:10467000002800F0888084F31188BFF36F8F0799BA
:1046800031B1DBF818300BB1584698470023079337
:10469000002F00F08B800BF114054FF02003EFF397
:1046A000118483F31288BFF36F8F0294284626F09B
:1046B0001DFB00288CD0284626F038FB0194059A73
:1046C000002A94D106A958462BF0A5FE0446069967
:1046D000514593D20028C3D159EA08030BD1002FCA
:1046E000C2D0DBF8006005AB07AA069958462BF04C
:1046F00023FF0746B8E737F086FA0028EFD12846AF
:1047000026F004FBF8B1029B83F31188BFF36F8F8F
:104710000BF12C0042464B4628F076FC07464FF042
:104720002003EFF3118483F31288BFF36F8F2846C1
:1047300026F0DCFAC0B1284626F0F8FA0194B7FA60
:1047400087F77F0990E71B4C40F2311322461D4941
:104750001A482BF052FE29461B482BF04EFE40F221
:10476000311120462BF042FE124C8823224612497A
:1047700012482BF042FE294611482BF03EFE8821BC
:1047800020462BF033FE0B4C40F2311322460D49EC
:104790000A482BF032FE29460B482BF02EFE40F241
:1047A000311120462BF022FE00230393039809B019
:1047B000BDE8F08F3C2904006C2904007C2504002E
:1047C000842904009C290400B42904002DE9F04147
:1047D00004460D46C36908469847804604F114060E
:1047E0004FF02003EFF3118783F31288BFF36F8F2D
:1047F000304626F07BFA90B1304626F097FA2B78B7
:1048000043F001032B70636803EB0800236913F086
:10481000010F13D1636A984213D3C01A11E0184CE8
:1048200088232246174918482BF0E7FD31461748E0
:104830002BF0E3FD882120462BF0D8FD636A013B75
:104840001840606020462BF01EFE304626F05EFACF
:1048500028B187F31188BFF36F8FBDE8F081084C52
:1048600040F2311322460A4907482BF0C6FD314673
:1048700008482BF0C2FD40F2311120462BF0B6FD66
:104880003C2904006C2904007C25040084290400D0
:104890009C290400B42904002DE9F04182B00446AB
:1048A00042E04B4C882322464A494B482BF0A5FD59
:1048B00029464A482BF0A1FD882120462BF096FD81
:1048C00053F8220080085ED154E0626A013A134036
:1048D000A36020462BF0EAFD1BE013F8221041F004
:1048E000020103F82210A768E3694046984738445C
:1048F000236913F0010F04D1636A984204D3C01AEC
:1049000002E0636A013B1840A060002701E0002735
:10491000B846284626F0FAF9002843D086F31188D5
:10492000BFF36F8F002F4ED004F114054FF020031A
:10493000EFF3118683F31288BFF36F8F284626F0BA
:10494000D5F907460028ACD0284626F0EFF901A992
:1049500020462BF074FD236AA26803EB82080199BC
:104960000029D4D013F8221011F0030117D0022926
:10497000A6D0002013F8221011F0010FADD110B90C
:10498000E36940469847A36801460344226912F050
:10499000010F9AD1626A93429AD39B1A98E7002733
:1049A000B846B6E70A4C40F2311322460C490A4891
:1049B0002BF023FD29460B482BF01FFD40F231114F
:1049C00020462BF013FD404602B0BDE8F08100BF49
:1049D0003C2904006C2904007C250400842904007F
:1049E0009C290400B42904002DE9F04104460D4639
:1049F000C36908469847064604F114074FF02003A0
:104A0000EFF3118883F31288BFF36F8F384626F0D7
:104A10006DF9A8B1384626F089F92B786FF30003B9
:104A20002B70236913F0020F19D0236AE26803EB9D
:104A30008203AB4213D02B6866F39F032B601AE00E
:104A4000244C88232246244924482BF0D6FC39469E
:104A500023482BF0D2FC882120462BF0C7FC2B7872
:104A60006FF341032B70E268A3689A4211D031467C
:104A700020462BF01BFD384626F048F9C0B188F3DC
:104A80001188BFF36F8F04F12C0028F075FABDE890
:104A9000F0813344226912F0010F04D1626A93421B
:104AA00004D39B1A02E0626A013A1340A360DEE776
:104AB000084C40F2311322460A4908482BF09DFC6D
:104AC000394609482BF099FC40F2311120462BF071
:104AD0008DFC00BF3C2904006C2904007C250400E7
:104AE000842904009C290400B429040010B504465C
:104AF0008C46838B002A12DB03F007035A1F012A1E
:104B000019D9042B50D100212BF0E8FD20462BF0C1
:104B10000FFE78B1A38B43F02003A3830AE0D0E912
:104B200000018CE80300002323606360012120461C
:104B30002BF0D4FD10BDD0E900018CE80300002269
:104B400022606260062B0FD0052B20D10021204669
:104B50002BF0C4FD20462BF0EBFD0028EAD0A38B00
:104B600043F02003A383E5E7DCF8003053B1E28B88
:104B70000132E2831A461B68002BF7D0002AF5D1D8
:104B80001346F3E7022120462BF0A8FDE2E70D4C87
:104B900040F2091322460C490C482BF02EFC40F23F
:104BA000091120462BF022FC064C40F21B13224632
:104BB000074906482BF021FC40F21B1120462BF040
:104BC00015FC00BFCC290400F42904007C25040056
:104BD000303E04002DE9F04782B0838BE1B10446FA
:104BE000154603F0070603F00802084692B30129B0
:104BF0001FD0022921D143F02003A383143420467F
:104C000026F084F8002800F09F8185F31188BFF317
:104C10006F8F02B0BDE8F087BA4C40F233132246E2
:104C2000B949BA482BF0E9FB40F2331120462BF08A
:104C3000DDFB43F01003A383E0E7B24C4FF49E7317
:104C40002246B349B1482BF0D8FB4FF49E71204661
:104C50002BF0CCFB00230093019358E020462BF06F
:104C600067FD56E0D4F818904A4669462046FFF79B
:104C70003DFF0027A38B03F00708B04500F0098132
:104C8000A268002A00F00581012643F00803A383EF
:104C900004F1140A504626F039F8002800F0028189
:104CA00085F31188BFF36F8F002E40F00C81009BBD
:104CB0002BB14B464246694620462BF07AFD17B190
:104CC00094492046B8474FF02003EFF3118583F352
:104CD0001288BFF36F8F504626F008F8002800F0C6
:104CE000F880504626F022F8A38B23F00803A38314
:104CF000A38B13F0100F00F0FB8023F01003A383AD
:104D00000120A68B06F0070600283FF477AF0228A3
:104D1000A4D000283FF472AF0138042800F2AC8020
:104D200001A353F820F000BF654C0000794E00004D
:104D30003D4D0000A54D00000F4E00005EB92368F8
:104D4000B3B123691F6807B3062120462BF0C6FCC8
:104D50004FF000098EE76B4C4FF4AB7322466E495F
:104D60006A482BF04AFB4FF4AB7120462BF03EFB18
:104D7000644C40F257132246684964482BF03DFBCF
:104D800040F2571120462BF031FB5E4C4FF4AD73CF
:104D9000224663495D482BF030FB4FF4AD7120464D
:104DA0002BF024FB022E0BD1E38BB3B923695F6890
:104DB00007B3042120462BF091FC4FF0000959E77E
:104DC000504C40F25D132246564950482BF015FBDB
:104DD00040F25D1120462BF009FB4A4C4FF4AF73B3
:104DE0002246514949482BF008FB4FF4AF71204649
:104DF0002BF0FCFA434C40F26113224648494348E9
:104E00002BF0FBFA40F2611120462BF0EFFA012E55
:104E10000BD12368B3B123699F6807B305212046EE
:104E20002BF05CFC4FF0000924E7364C4FF4B273D2
:104E300022463E4935482BF0E0FA4FF4B271204645
:104E40002BF0D4FA2F4C40F26513224633492F48F9
:104E50002BF0D3FA40F2651120462BF0C7FA294C0B
:104E60004FF4B47322462E4928482BF0C6FA4FF46B
:104E7000B47120462BF0BAFA224C40F26B13224652
:104E80002B4922482BF0B9FA40F26B1120462BF047
:104E9000ADFA009A0AB10026F7E6002F3FF428AFDA
:104EA0000026F2E6234C40F23113224622491748ED
:104EB0002BF0A3FA514621482BF09FFA40F2311112
:104EC00020462BF093FA4A46414620462BF00EFC32
:104ED000EDE6184C8823224619490C482BF08DFA30
:104EE000514618482BF089FA882120462BF07EFA8B
:104EF00013F0200F04D023F02003A383022000E747
:104F00000020FEE6CC2904001C2A04007C250400B5
:104F10002C2A04007D4F0000402A04004C2A040083
:104F2000702A0400882A0400A02A0400B02A040081
:104F3000303E04003C2904009C290400B4290400EC
:104F40006C29040084290400084D40F231132A46DC
:104F5000074908482BF051FA214607482BF04DFA33
:104F600040F2311128462BF041FA00BF3C290400E1
:104F70009C2904007C250400B4290400F8B50446EB
:104F80000D4600F114064FF02003EFF3118783F371
:104F90001288BFF36F8F304625F0A8FE48B1304627
:104FA00025F0C4FEA5613A4601212046FFF712FE16
:104FB000F8BD074C88232246064907482BF01DFA06
:104FC000314606482BF019FA882120462BF00EFABC
:104FD0003C2904006C2904007C2504008429040079
:104FE0002DE9F84F044688462BF0BBFB061E48DB34
:104FF00004F114074FF02003EFF3118A83F31288B2
:10500000BFF36F8FD346384625F070FE8146A8B1B6
:10501000384625F08BFEA58B05F00705E38B4FF690
:10502000FF7293424BD02E46022D16D0062D39D852
:10503000DFE805F0314C3838312A31003B4C882309
:1050400022463B493B482BF0D8F939463A482BF0E9
:10505000D4F9882120462BF0C9F90133E3830023DA
:105060001A4642B10022C8F800206268AAB3C2F80A
:105070000080C4F80480ABB3524602212046FFF7FB
:10508000A9FD3046BDE8F88F6FF085064FF00009A6
:105090004B464A46E5E7B5FA85F35B094A464FF0C9
:1050A0000009DEE7254C4FF4E473224624492148E9
:1050B0002BF0A3F94FF4E47120462BF097F96FF031
:1050C0000A064FF000094B464A46CAE76FF004064D
:1050D0004FF000094B464A46C3E7C4F80480C4F8C1
:1050E0000080C8E7384625F011FE68B18BF31188BF
:1050F000BFF36F8FB9F1000FC3D000232A4641469A
:1051000020462BF043FBBCE7084C40F2311322460B
:105110000C4908482BF071F939460B482BF06DF912
:1051200040F2311120462BF061F900BF3C29040008
:105130006C2904007C25040084290400CC29040087
:10514000B02A04009C290400B42904002DE9F04190
:10515000044600F114054FF02003EFF3118683F3AA
:105160001288BFF36F8F284625F0C0FD70B1374617
:10517000284625F0DBFDA38B03F007039846022B9E
:1051800016D0012B11D06FF0850817E0234C88232F
:105190002246234923482BF030F9294622482BF098
:1051A0002CF9882120462BF021F96FF0040805E046
:1051B000E38B73B1013B9BB2E383BBB1284625F07F
:1051C000A5FDC8B187F31188BFF36F8F4046BDE8D6
:1051D000F081164C40F2EF132246154911482BF08E
:1051E0000CF940F2EF1120462BF000F93246022173
:1051F0002046FFF7EFFCE9E7084C40F23113224666
:105200000C4908482BF0F9F829460B482BF0F5F823
:1052100040F2311120462BF0E9F800BF3C29040090
:105220006C2904007C25040084290400CC29040096
:10523000C82A04009C290400B429040010B50346C0
:10524000426802F003028160022A11D0032A0CD0C6
:10525000012A10D00C4C452322460C490C482BF057
:10526000CCF8452120462BF0C1F80468002004E06A
:105270000068002401E00024204600225A6008B1A2
:1052800029F060FA204610BDD82A0400303E040000
:105290007C25040010B143685879704710B5064C5E
:1052A00040F233132246054905482BF0A6F840F298
:1052B000331120462BF09AF8082B0400402B0400F1
:1052C0007C25040010B520B10268D26802B1904775
:1052D00010BD054C8B232246044905482BF08DF860
:1052E0008B2120462BF082F8082B0400402B040071
:1052F0007C25040010B520B10268126962B19047A4
:1053000010BD064C9E232246054906482BF075F831
:105310009E2120462BF06AF80020F1E7082B0400BC
:10532000402B04007C25040010B518B10268926877
:10533000904710BD054CD0232246054905482BF067
:105340005CF8D02120462BF051F800BF082B040058
:10535000402B04007C25040010B520B1026852687F
:1053600002B1904710BD054CC223224604490548AE
:105370002BF043F8C22120462BF038F8082B04000C
:10538000402B04007C25040010B520B171B10268E7
:105390001268904710BD0B4CB22322460A490B48B5
:1053A0002BF02BF8B22120462BF020F8054CB3232C
:1053B0002246074905482BF020F8B32120462BF060
:1053C00015F800BF082B0400402B04007C250400C6
:1053D000582B040038B50546144C00E01034144B2B
:1053E0009C4212D8124B9C421FD22046FFF752FF1C
:1053F0000028F3D0294620462BF040FA0028EDD0B3
:1054000029462046FFF7C0FFE8E70A4C4FF4EC734B
:105410002246094909482AF0F0FF09482AF0EDFF21
:105420004FF4EC7120462AF0E1FF38BDE8CB0300D1
:1054300008CC03006C2B04009C2B04007C2504008A
:10544000C02B040010B530B10346006884690CB16C
:105450001846A04710BD064C4FF4B17322460549CB
:1054600005482AF0CAFF4FF4B17120462AF0BEFF6A
:10547000082B0400402B04007C25040070B5064670
:105480000D460F4C05E02A4631462046FFF7DAFF6D
:1054900010340C4B9C4203D80A4B9C42F3D370BD92
:1054A000094C40F266332246084909482AF0A5FF14
:1054B00008482AF0A2FF40F2663120462AF096FF03
:1054C000E8CB030008CC03006C2B04009C2B0400E9
:1054D0007C250400C02B04002DE9F0410746054659
:1054E000EDB195FAA5F6B6FA86F60E4C04EB061465
:1054F0000123B3406FEA030825EA0305237B002B51
:10550000EED02046FFF7F6FE0028E9D107EA0807AB
:10551000636804221968204600F076FBE0E738460D
:10552000BDE8F081E8CB03002DE9F041314B324A70
:105530009B1A8F2B12D880460F46304BBFF35B8FE0
:1055400053E8005F6A1C43E800210029F8D1BFF34B
:105550005B8F002D4AD1284C002614E0284C4FF4D4
:1055600096732246274928482AF047FF4FF4967140
:1055700020462AF03BFF636804221968204600F0A9
:1055800043FB013610341B4B9C4211D8194B9C42F3
:105590001ED2237B002BF5D02046FFF793FE20463A
:1055A000FFF7A8FE0028E6D00123B3401D43E8E73B
:1055B000134C40F239132246144913482AF01DFFB8
:1055C00013482AF01AFF40F2391120462AF00EFF44
:1055D000B8F1000F0BD055B12846FFF77DFF054607
:1055E000002FF8D00A202BF04FF9F4E700252846C9
:1055F000BDE8F08108CC0300E8CB030080720020F6
:105600006C2B0400E02B04007C2504009C2B040080
:10561000C02B040008B5064B186018B1054B1B6879
:10562000092B00DC08BD044827F0A6FCFAE700BF00
:10563000747200207C720020800F002008B50248A0
:1056400027F09AFC08BD00BF800F002030B589B05C
:1056500000220F490F4836F053FD0F4D0022002362
:10566000CDE90623002404940E23039302940194AD
:1056700000940A4B4FF400620949284625F080FC4B
:105680000849284625F012FB204609B030BD00BF6E
:105690003D560000E816002028120020C55A0000E0
:1056A000409E0020102C0400014B53F8200070474E
:1056B000482C040048B108B5054A1060054B196034
:1056C000084600F05DFE002008BD6FF01500704731
:1056D000B00A00207072002008B5054B1B781BB182
:1056E000034B01221A7008BD024827F045FCF7E77A
:1056F000AE950020800F00200D4BBFF35B8F53E869
:10570000001F013143E80012002AF8D1BFF35B8F7C
:1057100000B97047074BBFF35B8F53E8001F013997
:1057200043E80012002AF8D1BFF35B8FF1E700BF16
:10573000787200207C720020064B00200146BFF3E7
:105740005B8F53E8000F43E80012002AF9D1BFF342
:105750005B8F70477872002038B5FFF7EDFF054684
:10576000114C00E01034114B9C420CD80F4B9C4262
:1057700019D22046FFF78EFD0028F3D02946204697
:10578000FFF7EAFDEEE70A4C4FF4F27322460949AF
:1057900009482AF032FE09482AF02FFE4FF4F27130
:1057A00020462AF023FE38BDE8CB030008CC0300D6
:1057B0006C2B04009C2B04007C250400C02B0400EF
:1057C000034B18680028D4BF00200120704700BF99
:1057D0007872002010B5044C04492046FEF7B2FE52
:1057E000034B1C6010BD00BFAC0E0020342C040025
:1057F0006C72002008B50023064A1370064A136035
:10580000064A13604FF400410548FFF753FFFFF7C6
:10581000E1FF08BDAF950020787200207C72002067
:105820008108030008B5014601482BF043F808BD84
:10583000AC0E002008B50248FFF72EF808BD00BFE7
:10584000AC0E002008B50146024B18682BF038F862
:1058500008BD00BF6C72002008B502482BF034F878
:1058600008BD00BFAC0E002010B582B0002200239E
:10587000CDE90023284B187808B902B010BD68465E
:105880002BF03AF8044688B1244BBFF35B8F53E802
:10589000001F013943E80012002AF8D1BFF35B8FE3
:1058A0002046FFF797FD2046FFF7CCFFFFF788FF64
:1058B00058B91B4A1368516813F57A7341F1000116
:1058C00013605160FFF7C8FFD7E736F0A9FB4A0124
:1058D00042EAD06243011B1A62EB0102920042EAE3
:1058E00093729B001B1842EB0102D20042EA5372F2
:1058F000C3F3103343EA4243D20B094801684068BE
:105900005B1A62EB000240F2E9318B4272F1000255
:10591000CFD3FFF721FFCCE7AE9500207C720020AB
:10592000E0160020194B1B7803B1704710B5002119
:105930000120FFF7F9FD164C00E01034154B9C4296
:105940000BD8144B9C4218D22046FFF7A3FC00282A
:10595000F3D02046FFF7E8FCEFE70F4C40F29B1333
:1059600022460E490E482AF048FD0E482AF045FD11
:1059700040F29B1120462AF039FDFFF775FF002801
:10598000FBD1024B01221A7010BD00BFAF95002061
:10599000E8CB030008CC03006C2B04009C2B040014
:1059A0007C250400C02B040030B583B0314BBFF31D
:1059B0005B8F53E8002F511C43E800100028F8D1FA
:1059C000BFF35B8F2C4B1B786BB92C4B1B6823B33D
:1059D000002A44D0092A20D1294836F09DFB2948C5
:1059E00027F0CAFA19E04FF02003EFF3118483F394
:1059F0001288BFF36F8F244825F078F978B1224DD3
:105A0000284625F093F9FFF72FFF284625F07EF969
:105A1000A0B184F31188BFF36F8F03B030BD1B4C6E
:105A2000882322461A491B482AF0E7FC16491A48DF
:105A30002AF0E3FC882120462AF0D8FC134C40F2DF
:105A400031132246154913482AF0D7FC2946144839
:105A50002AF0D3FC40F2311120462AF0C7FC002284
:105A60000023CDE900234FF400420023044828F02E
:105A700041FDD2E77C720020AF95002074720020B7
:105A8000E8160020800F0020687200203C290400E6
:105A90006C2904007C250400842904009C2904004E
:105AA000B429040010B50446044B1B689847A06055
:105AB000214603482AF024FF10BD00BFB00A002091
:105AC000AC0E00202DE9F041234B244A9B1A1B0900
:105AD00010D000210846FFF727FD8046B8B140F2FC
